:100000000C9463000C948B000C948B000C948B006C
:100010000C948B000C948B000C948B000C948B0034
:100020000C948B000C948B000C948B000C948B0024
:100030000C948B000C948B000C948B000C948B0014
:100040000C94E70B0C948B000C94570C0C94310C13
:100050000C948B000C948B000C948B000C948B00F4
:100060000C94890C0C948B000000000023002600E7
:10007000290000000008000201000003040700003E
:1000800000000000000000000000250028002B00F8
:1000900000000000240027002A00040404040404D3
:1000A0000404020202020202030303030303010227
:1000B00004081020408001020408102001020408F6
:1000C0001020A80D341311241FBECFEFD8E0DEBFDF
:1000D000CDBF11E0A0E0B1E0EEE0FDE202C005908E
:1000E0000D92AA3DB107D9F725E0AAEDB1E001C014
:1000F0001D92A434B207E1F710E0C2E6D0E004C0DC
:100100002197FE010E945714C136D107C9F70E94FA
:10011000E00E0C947A160C94000090E0FC01E2557D
:10012000FF4F249186569F4FFC018491882399F0BC
:1001300090E0880F991FFC01E057FF4FA591B49103
:10014000FC01EA57FF4F859194918FB7F894EC9199
:10015000E22BEC938FBF0895833081F028F4813037
:1001600099F08230A9F008958730A9F08830C9F05D
:100170008430B1F4809180008F7D03C08091800035
:100180008F7780938000089584B58F7784BD08951C
:1001900084B58F7DFBCF8091B0008F778093B000C6
:1001A00008958091B0008F7DF9CF1F93CF93DF9397
:1001B000282F30E0F901EE58FF4F8491F901E25504
:1001C000FF4FD491F901E656FF4FC491CC23A9F01B
:1001D000162F81110E94AC00EC2FF0E0EE0FFF1FF4
:1001E000EA57FF4FA591B4918FB7F894EC91111194
:1001F00008C0D095DE23DC938FBFDF91CF911F9194
:100200000895DE2BF8CF3FB7F89480916602909165
:100210006702A0916802B091690226B5A89B05C04B
:100220002F3F19F00196A11DB11D3FBFBA2FA92F75
:10023000982F8827BC01CD01620F711D811D911D72
:1002400042E0660F771F881F991F4A95D1F70895DE
:100250008F929F92AF92BF92CF92DF92EF92FF92D6
:100260006B017C010E9403014B015C01C114D104AC
:10027000E104F104B9F00E940301681979098A09BF
:100280009B09683E73408105910580F321E0C21A05
:10029000D108E108F10888EE880E83E0981EA11CC1
:1002A000B11CE4CFFF90EF90DF90CF90BF90AF9064
:1002B0009F908F9008952FB7F8946091620270918B
:1002C000630280916402909165022FBF08950895A2
:1002D0000895AF92BF92CF92DF92EF92FF920F9369
:1002E0001F93CF93DF936C017B018B01040F151FCC
:1002F000EB015E01AE18BF08C017D10759F0699134
:10030000D601ED91FC910190F081E02DC601099597
:10031000892B79F7C501DF91CF911F910F91FF9044
:10032000EF90DF90CF90BF90AF900895FC01538D78
:10033000448D252F30E0842F90E0821B930B5417BF
:1003400010F0CF96089501970895FC01918D828D4C
:10035000981761F0A28DAE0FBF2FB11D5D968C91E5
:10036000928D9F5F9F73928F90E008958FEF9FEF24
:100370000895FC01918D828D981731F0828DE80FE0
:10038000F11D858D90E008958FEF9FEF0895FC019A
:10039000918D228D892F90E0805C9F4F821B910967
:1003A0008F73992708958AEB92E00E94C70121E09C
:1003B000892B09F420E0822F089580E090E0892BBA
:1003C00029F00E94D30181110C9400000895FC01D2
:1003D000A48DA80FB92FB11DA35ABF4F2C91848DA6
:1003E00090E001968F739927848FA689B7892C9303
:1003F000A089B1898C91837080648C93938D848D56
:10040000981306C00288F389E02D80818F7D808358
:100410000895EF92FF920F931F93CF93DF93EC0118
:1004200081E0888F9B8D8C8D98131AC0E889F9899B
:10043000808185FF15C09FB7F894EE89FF8960839E
:10044000E889F98980818370806480839FBF81E01F
:1004500090E0DF91CF911F910F91FF90EF90089561
:10046000F62E0B8D10E00F5F1F4F0F731127E02E3C
:100470008C8D8E110CC00FB607FCFACFE889F98974
:10048000808185FFF5CFCE010E94E701F1CFEB8D92
:10049000EC0FFD2FF11DE35AFF4FF0829FB7F89448
:1004A0000B8FEA89FB8980818062CFCFCF93DF9366
:1004B000EC01888D8823B9F0AA89BB89E889F9897C
:1004C0008C9185FD03C0808186FD0DC00FB607FCB1
:1004D000F7CF8C9185FFF2CF808185FFEDCFCE01E4
:1004E0000E94E701E9CFDF91CF910895FC0187A138
:1004F000882399F09FB7F89480914002882319F0DF
:1005000081508093400280914002811105C08CB5DA
:100510008F7B8CBD10923F029FBF0895FF920F9377
:100520001F93CF93DF93EC018B018FA1882309F4F4
:1005300052C080913F02882361F08FB7F894909168
:100540003F029130B9F59DB390933E029DB39DBBA0
:100550008FBF88E58CBD81E08DBD60E08EA10E94DB
:10056000D500902F812F0CB405FC27C01EBD0000C4
:100570000DB407FEFDCF8EB59EBD00000DB407FE85
:10058000FDCF8EB561E08EA10E94D50080913F0223
:10059000882351F09FB7F89420913F0280913E024A
:1005A0002130B9F48DBB9FBFDF91CF911F910F9187
:1005B000FF90089580933E02CCCF0EBD00000DB495
:1005C00007FEFDCF9EB58EBD00000DB407FEFDCF2A
:1005D000D8CF8FBFE9CF60E08EA10E94D50090E117
:1005E000F92E612F661F6627661F8CA10E94D50019
:1005F00060E08DA10E94D50061E08DA10E94D50030
:10060000000F111FFA94F110ECCF60E08CA10E9452
:10061000D50061E08EA1DF91CF911F910F91FF90E6
:100620000C94D50021E030E0FC01338B228B6081FB
:1006300071816D71718360830E948E0281E00895E3
:100640008F929F92AF92BF92CF92DF92EF92FF92E2
:100650000F931F93CF93DF93EC018B01CA01B90174
:10066000F8013596EE0FFF1FEE0FFF1FEC0FFD1F79
:1006700060837183828393837801EE0CFF1CEE0C00
:10068000FF1C6E01CE0CDF1C20E030E040E85DE492
:100690000E940D164B015C0168A179A18AA19BA162
:1006A0000E947F159B01AC01C501B4010E94DE14BC
:1006B00020E030E040E05FE30E9472140E94501599
:1006C000F60162837383848395830130110599F168
:1006D00000E010E468817981CE010E948E02EC0E68
:1006E000FD1EF701628173817F73602B712BCE0138
:1006F0000E948E02F70182819381A481B5812EE050
:10070000B695A795979587952A95D1F79F73BC01C4
:10071000602B712BCE010E948E0281E0DF91CF9180
:100720001F910F91FF90EF90DF90CF90BF90AF900F
:100730009F908F90089500E010E8CCCFEF92FF9249
:100740000F931F93CF93DF93EB017A018A012F3F21
:100750003F4F11F010E000E0209711F4C0E5D3EC1A
:10076000BC01990F880B990B0E9481159B01AC016C
:1007700070E060E083E095E00E942003BE01DD0FA1
:10078000880B990B0E9481159B01AC0170E060E021
:100790008BED94E00E942003B701FF0C880B990BAE
:1007A0000E94280120E030E543E457E470E060E077
:1007B00083E095E00E94200320E030E543E457E425
:1007C00070E060E08BED94E00E942003B801110F0F
:1007D000880B990BDF91CF911F910F91FF90EF90B4
:1007E0000C9428012091FB01260F3327331F21325F
:1007F0003105ECF420919002FC0190E080E024307F
:1008000069F082E00895A091FB012191AC0145526D
:100810005E4FA40FB52FB11D2C930196861798F348
:100820008091FB01680F6093FB0180E0089581E0F7
:1008300008951092900281E080938F0210926A02D4
:1008400061E082E10E94D50061E083E10E94D50071
:10085000E9EBF0E080818E7F808380818D7F8083D3
:1008600088E48093B80085E48093BC000895CF931A
:10087000DF9391E09093DA018823B9F0C091B8003A
:10088000D091BA008091BC008A7B8093BC0060E06C
:1008900082E10E94D50060E083E10E94D5000E94C1
:1008A0001904D093BA00C093B800DF91CF91089596
:1008B0008F929F92AF92BF92CF92DF92EF92FF9270
:1008C0000F931F93CF93DF93D091B902D13208F0E9
:1008D000D7C0182FC091B8020E9403016B017C01A0
:1008E0008091900281116BC082E0809390021093FE
:1008F0008F028FEF80938E0210928D02D0938C0224
:10090000A8E9B2E0ECE6F2E080E0D81391C01092E2
:100910006B0280916B02CC0FC82BC0936B0280914D
:100920006A02813009F088C010926A020E940301B5
:100930006B017C0180916B028093BB0080919202DD
:1009400090919302A0919402B0919502892B8A2BE9
:100950008B2BA1F00E94030100919202109193024F
:1009600020919402309195026C197D098E099F099E
:10097000061717072807390708F442C08091BC0002
:1009800083FDD8CF85EC8093BC000E9403016B01EE
:100990007C0180919002823009F450C080918E02D7
:1009A0008F3F09F46FC080918E02803209F46CC0D1
:1009B00080918E02803309F469C084E026C0809162
:1009C000920290919302A0919402B0919502892B8A
:1009D0008A2B8B2B09F484CF0E9403018090920212
:1009E00090909302A0909402B09095026C197D09AA
:1009F0008E099F0986169706A806B90608F070CFDB
:100A0000809191020E94370485E010929702109223
:100A1000B90210929602DF91CF911F910F91FF9032
:100A2000EF90DF90CF90BF90AF909F908F90089500
:100A30009D9191938F5F69CF85EEA5CF80919202B2
:100A400090919302A0919402B0919502892B8A2BE8
:100A50008B2B09F49ECF0E9403010091920210910A
:100A6000930220919402309195026C197D098E09B0
:100A70009F09061717072807390708F08ACFC0CF44
:100A800081E0C3CF80E0C1CF82E0BFCF83E0BDCFA4
:100A90000895E091460280914502E81730F4F0E0B5
:100AA000E25EFD4F808190E008958FEF9FEF089503
:100AB00090914602809145022FEF3FEF981748F43E
:100AC000E92FF0E0E25EFD4F208130E09F5F9093E0
:100AD0004602C90108958091450290914602891B02
:100AE000990B0895CF92DF92EF92FF920F931F938D
:100AF000CF93DF937C01CB018A01209196022223C0
:100B000089F0EB016B01C40ED51ECC15DD0569F033
:100B10006991D701ED91FC910190F081E02DC70121
:100B20000995F3CF642F0E94F203C801DF91CF91A2
:100B30001F910F91FF90EF90DF90CF900895CF938A
:100B4000DF931F92CDB7DEB76983209196022223EF
:100B5000F9F02091B902203258F021E030E0FC0198
:100B60003383228390E080E00F90DF91CF9108954E
:100B700080919702E82FF0E0E856FD4F998190832D
:100B80008F5F809397028093B90281E090E0ECCF71
:100B900061E0CE0101960E94F203F7CF90E080E081
:100BA000089520E030E44BE654E470E060E083E038
:100BB00095E00C94200326E636E14EED54E470E017
:100BC00060E083E095E00C94200320E030E942EB04
:100BD00054E470E060E083E095E00C94200323E3AC
:100BE00033E744E654E470E060E083E095E00C9481
:100BF000200320E030E048EC53E470E060E083E064
:100C000095E00E94200320E030E041EE53E470E0E4
:100C100060E08BED94E00C94200320E030E040EFA6
:100C200053E470E060E083E095E00E94200320E060
:100C300030E04CED53E470E060E08BED94E00C9418
:100C4000200320E030E048EC53E470E060E083E013
:100C500095E00C94200320E030E040EF53E470E096
:100C600060E083E095E00E94200320E030E04BE16B
:100C700054E470E060E08BED94E00C94200320E0FD
:100C800030E543E457E470E060E083E095E00E94E3
:100C9000200320E030E543E457E470E060E08BEDB2
:100CA00094E00C942003CF93DF93E1E8F0E084918B
:100CB000EDEBF0E0D491E9EAF0E0C49170E060E09F
:100CC000CC2399F081110E94AC00EC2FF0E0EE0FE4
:100CD000FF1FE859FF4FA591B491EC91ED2391E0EE
:100CE00080E009F490E0692F782F81E068278FE099
:100CF000DF91CF910C94D5000E94530630E020E0A4
:100D000047E050E068EC70E088EC90E00E949E03C1
:100D10000C94530661E08FE00C94D5000F931F9361
:100D2000CF93DF93EC01EE85FF85309741F060E0D3
:100D300070E0CB010995882311F087E0898BE98960
:100D4000E830F0F4F0E0E955F94F0C945714AF0691
:100D5000C606CA0618072E073B07540752078E819E
:100D60009F81092E000CAA0BBB0B8A8B9B8BAC8B33
:100D7000BD8B1E8A1F8A188E198E81E08EA3898BE7
:100D80008EA1DF91CF911F910F9108951D861C8632
:100D900082E0F5CF8C859D85880F991FE881F981C8
:100DA000E80FF91F0190F081E02DFB8FEA8F30975B
:100DB00029F0688579858A859B8509958C859D852F
:100DC00028892223D1F04A895B896C897D89415029
:100DD0005109610971090E891F89288D398D041700
:100DE00015072607370749F42C813D812150310929
:100DF0008217930711F486E0C2CF880F991F2A81CA
:100E00003B81820F931FFC01008111811D8F0C8F8C
:100E10000E945B016E8F7F8F88A399A3012E000C27
:100E2000220B330B0AA31BA32CA33DA383E0A7CF64
:100E30000E945B010E8D1F8D28A139A1601B710BD3
:100E4000820B930B0AA11BA12CA13DA16017710776
:100E50008207930708F494CF84E091CF8C859D8519
:100E600001969D878C872C813D81821793070CF416
:100E70008FCF85E084CF8E899F89A88DB98D01960B
:100E8000A11DB11D8E8B9F8BA88FB98F4A895B895D
:100E90006C897D8984179507A607B70708F0ABCF43
:100EA00081E06DCF81E08FA31EA26ACF68EC70E075
:100EB00080E090E00E94280181E090E09093AE03F2
:100EC0008093AD031092AF031092B0031092B10360
:100ED0001092B2031092B4031092B3031092B803AD
:100EE0001092CD031092CE0387EA93E00E948E0603
:100EF0008111FACF089581E090E090935E03809392
:100F00005D0310925F0310926003109261031092D0
:100F100062031092640310926303109268031092AC
:100F20007D0310927E0387E593E00E948E06811177
:100F3000FACF0895FB019191BF01992321F09813F5
:100F4000F9CF81E0089580E00895CF93DF93D82F03
:100F5000862F6FE971E00E949A07882309F43FC049
:100F60008FE090E09C012D1B3109D7FD3395E901FD
:100F7000F90137FD3396F595E795F595E795EE0F71
:100F8000FF1FE154FB4F60817181072E000C880B1D
:100F9000990B0E9481159B01AC0170E060E083E039
:100FA00095E00E942003CE0164E070E00E944314AB
:100FB000FC01EE0FFF1FE953FB4F60817181072E8B
:100FC000000C880B990B0E9481159B01AC0170E00D
:100FD00060E08BED94E0DF91CF910C942003DF91E2
:100FE000CF910895862F6FE971E00E949A078111D1
:100FF0000C943F0608951F93CF93DF93EC018FA1CC
:10100000882309F49EC01FB7F89480914002811193
:1010100024C0E4EAF0E08491E8EBF0E09491E82F5A
:10102000F0E0EE0FFF1FE057FF4FA591B491EC9158
:10103000E92321F461E08AE00E94D5008AE00E9461
:101040008D008CB580618CBD8CB580648CBD8DE0CD
:101050000E948D008BE00E948D00809140028F5F86
:10106000809340021FBF8EA10E948D0061E08EA17F
:101070000E94D50080E090E29983888360E070E26E
:10108000CE010E948E0268817981716079836883C4
:10109000CE010E948E0280E498E7ADE7B1E088A31C
:1010A00099A3AAA3BBA320E030E04AE754E470E090
:1010B00060E0CE010E94200320E030E04AE754E4E3
:1010C00061E070E0CE010E9420031D8E1C8E1A8606
:1010D0001B861C861D8660E070ECCE010E948E028D
:1010E0001F8E1E8E1E861F86188A198A60E070EE7B
:1010F000CE010E948E026881798171607983688354
:10110000CE010E948E02688179817E7F7983688317
:10111000CE010E948E02CE010E9412036881798165
:10112000777F79836883CE010E948E0268817981FE
:101130007B7F79836883CE01DF91CF911F910C94DF
:101140008E028CA10E948D0060E08DA10E94D500CE
:101150008DA10E948D0087CF8F929F92AF92BF92F8
:10116000CF92DF92EF92FF920F931F93CF93DF9373
:101170008C01DC0119968D919C911A972C9131E08C
:10118000309396022093B802109297021092B902FF
:10119000DC01ED91FC910190F081E02D099581E059
:1011A0000E945804C82F8FEFC111A1C0F801D0814F
:1011B0000E9403016B017C0180919002811163C048
:1011C00081E08093900280938F029FEF90938E0234
:1011D00010928D0210928C0280936B0280916B02B0
:1011E000DD0FD82BD0936B0280916A02813009F019
:1011F0008BC010926A020E9403016B017C018091F6
:101200006B028093BB008091920290919302A09117
:101210009402B0919502892B8A2B8B2BA1F00E940E
:1012200003018090920290909302A0909402B0905B
:1012300095026C197D098E099F0986169706A806E6
:10124000B90608F441C08091BC0083FDD8CF85EC7D
:101250008093BC000E9403016B017C01809190028D
:10126000813009F453C080918D02811171C0809149
:101270008D02ECE6F2E0AEE1B2E0C81749F19191DF
:101280009D93CF5FFACF8091920290919302A091AB
:101290009402B0919502892B8A2B8B2B09F48CCF69
:1012A0000E9403018090920290909302A090940279
:1012B000B09095026C197D098E099F0986169706D4
:1012C000A806B90608F078CF809191020E943704F1
:1012D00010924602C0934502D80119968D919C91B7
:1012E000DC01ED91FC910284F385E02D0995DF91FD
:1012F000CF911F910F91FF90EF90DF90CF90BF9013
:10130000AF909F908F90089585EEA2CF809192022A
:1013100090919302A0919402B0919502892B8A2B0F
:101320008B2B09F49BCF0E94030180909202909036
:101330009302A0909402B09095026C197D098E09D9
:101340009F0986169706A806B90608F087CFBCCF76
:1013500081E08FCFCF92DF92EF92FF920F931F9396
:10136000CF938C017B0160EF8091CF049091D004EA
:101370000E94AC088F3F19F021E0803F09F420E083
:101380008091D3049091D4048230910509F447C12F
:101390008CF4009729F1019709F417C18091D304C7
:1013A0009091D404CF911F910F91FF90EF90DF9017
:1013B000CF9008958430910509F451C10CF44AC1CD
:1013C000059761F780E18093D9041092D4041092BC
:1013D000D304E114F10411F36091DA04F70138C188
:1013E0002223E1F20091CF041091D0040E945B010E
:1013F0006B017C01F80183819481009701F1B701B1
:10140000A601481B590B6109710985819681A78145
:10141000B085481759076A077B0788F481E090E098
:101420009093D4048093D3040E945B016093D5040D
:101430007093D6048093D7049093D804AFCFF8016B
:1014400082818533A1F568EFC8010E94AC08883F0E
:1014500059F4C0E1F801C183C582D682E782F086E3
:10146000C03109F49BCFDACF803FA9F0883EA9F0C4
:10147000883DA9F0883BA9F0C4E0883779F667E099
:10148000C8010E94AC08873021F3863019F38530FB
:1014900051F4CB5FDFCFC0E0F2CFC1E0F0CFC2E0CC
:1014A000EECFC3E0ECCFC65F8330A1F2B7CF8E336F
:1014B00069F56CEFC8010E94AC088C3F51F2883F7F
:1014C000D9F0843FD9F08C3ED9F08C3DD9F08C3BDB
:1014D000D9F0C5E08C3709F0A1CF63E0C8010E94C4
:1014E000AC08833009F4B5CF823009F4B3CFCA5FBA
:1014F000813009F4AFCF92CFC0E0EFCFC1E0EDCFA4
:10150000C2E0EBCFC3E0E9CFC4E0E7CF813509F516
:101510006FEFC8010E94AC088F3F09F49ACF8E3F4D
:1015200009F445C08D3F09F444C08B3F09F443C022
:10153000873F09F442C08F3E09F441C08F3D09F452
:1015400040C08F3B09F43FC08F3709F067CFC7E039
:1015500081CF60EFC8010E94AC08803F09F479CFC9
:10156000803EB1F0803DB1F0803BB1F0C3E0803708
:1015700009F054CF6FE0C8010E94AC088F3009F425
:1015800068CF8E3009F466CF8D3041F4CC5F62CFE6
:10159000C0E0F0CFC1E0EECFC2E0ECCF8B3011F471
:1015A000C85F58CFC45F873009F454CF37CFC0E04D
:1015B00051CFC1E04FCFC2E04DCFC3E04BCFC4E02D
:1015C00049CFC5E047CFC6E045CF222319F1C090EF
:1015D000D104D090D2040D2C000CEE08FF088091AD
:1015E000D5049091D604A091D704B091D804C80E28
:1015F000D91EEA1EFB1E0E945B016C157D058E053F
:101600009F0508F4CBCE82E090E09093D4048093C1
:10161000D304C4CE1092D4041092D304BFCEE09170
:10162000CF04F091D00481818093D9040384F485A0
:10163000E02DE80FF11D60816093DA0423E030E0D3
:101640003093D4042093D304F801012B09F4A6CEDF
:101650000995A4CE2111A2CE84E090E0E1CE83E0F2
:1016600090E02111D2CFC090D104D090D2040D2CA3
:10167000000CEE08FF088091D5049091D604A0914B
:10168000D704B091D804C80ED91EEA1EFB1E0E94D2
:101690005B016C157D058E059F0508F47FCE85E006
:1016A00090E0B3CF7F928F929F92AF92BF92CF92F2
:1016B000DF92EF92FF920F931F93CF93DF93D82F78
:1016C000792E6B018A0179010E945B014B015C015B
:1016D00028EE820E23E0921EA11CB11C0E945B0129
:1016E000681579058A059B05C0F5B701C8010E94F8
:1016F000AA09039799F7A091CF04B091D00411964D
:10170000EC9111971B968D919C91E80FF92FF11D8B
:101710008081ED2FF72DC191CC2301F3C813FBCFAE
:101720000E945B01681579058A059B05B8F6B7012B
:10173000C8010E94AA09C816D90691F78C2FDF911B
:10174000CF911F910F91FF90EF90DF90CF90BF90BE
:10175000AF909F908F907F900895C0E0EFCF85ED80
:101760008093BC008091920290919302A091940288
:10177000B09195020796A11DB11D23E0B695A795DE
:10178000979587952A95D1F72091BC0024FD03C039
:1017900010929002089540919202509193026091AC
:1017A000940270919502452B462B472B69F30097C5
:1017B000A105B10541F02AE22A95F1F700C0019791
:1017C000A109B109E1CF809191020C9437041F92D5
:1017D0000F920FB60F9211242F933F938F939F93E5
:1017E000AF93BF938091620290916302A0916402D3
:1017F000B09165023091610223E0230F2D3758F537
:101800000196A11DB11D2093610280936202909305
:101810006302A0936402B093650280916602909186
:101820006702A0916802B09169020196A11DB11DE5
:101830008093660290936702A0936802B093690256
:10184000BF91AF919F918F913F912F910F900FBEBC
:101850000F901F90189526E8230F0296A11DB11D29
:10186000D2CF1F920F920FB60F9211242F933F9356
:101870004F935F936F937F938F939F93AF93BF9398
:10188000EF93FF938AEB92E00E94E701FF91EF91C3
:10189000BF91AF919F918F917F916F915F914F9188
:1018A0003F912F910F900FBE0F901F9018951F9290
:1018B0000F920FB60F9211242F938F939F93EF9354
:1018C000FF93E091CA02F091CB028081E091D002B7
:1018D000F091D10282FD1BC090818091D3028F5F75
:1018E0008F732091D402821741F0E091D302F0E08F
:1018F000E654FD4F958F8093D302FF91EF919F9116
:101900008F912F910F900FBE0F901F90189580818F
:10191000F4CF1F920F920FB60F9211242F933F9383
:101920004F935F936F937F938F939F93AF93BF93E7
:10193000EF93FF938091B900887F803609F44AC005
:10194000F0F5883209F4A7C018F5803109F49BC07E
:10195000B8F4882309F4F9C0883009F494C0FF91E1
:10196000EF91BF91AF919F918F917F916F915F9117
:101970004F913F912F910F900FBE0F901F90189590
:10198000883109F488C0803251F780938E0214C0E8
:10199000803409F49DC040F48033B9F38833F9F6FC
:1019A00080938E0285ECB0C0803509F485C08835FF
:1019B00009F496C0883499F60E94AF0BD0CF8839CD
:1019C00009F48CC038F5883729F050F4883611F0C6
:1019D000803729F683E08093900210921D0257C051
:1019E000883809F47BC0803919F0803809F0B7CF06
:1019F00080911D02803208F071C0E0911D0281E0EB
:101A00008E0F80931D028091BB00F0E0E350FE4FEB
:101A100080833DC0803B39F0E0F4803A09F479C01E
:101A2000883A09F09CCF84E0809390021092FC01E8
:101A30001092FB01E0914302F091440209958091DC
:101A4000FB0181110FC081E08093FB011092DB014B
:101A500009C0803C09F4A6CF883C09F4A3CF883B99
:101A600009F07DCFE091FC0181E08E0F8093FC01B5
:101A7000F0E0E552FE4F80818093BB009091FC0125
:101A80008091FB0129C080916B028093BB0085ECA3
:101A90008093BC0064CF90918D0280918C02981746
:101AA00058F5E0918D0281E08E0F80938D02F0E079
:101AB000E459FD4F8081E9CFE0918D0281E08E0FE6
:101AC00080938D028091BB00F0E0E459FD4F80834C
:101AD00090918D0280918C029817C8F285E8D8CF3A
:101AE000E0918D0281E08E0F80938D028091BB008A
:101AF000F0E0E459FD4F808380918F0281115CCF2B
:101B000081E080936A0284EA8093BC001092900284
:101B100026CF85EC8093BC001092900280911D022C
:101B2000803230F4E0911D02F0E0E350FE4F10826D
:101B300060911D0270E0E0914102F09142028DEF50
:101B400091E0099510921D020ACF10928E0234CFB7
:101B5000EAEBF2E01382128248EE53E060E070E0BC
:101B600044835583668377838FE791E091838083F5
:101B700085EC90E09587848784EC90E09787868752
:101B800080EC90E0918B808B81EC90E0938B828B4A
:101B900082EC90E0958B848B86EC90E0978B868B23
:101BA000118E128E138E148EABE2B5E013961C923A
:101BB0001E92129714964D935D936D937C93179795
:101BC00081E991E011969C938E93E7E3F5E014860A
:101BD000138620E1218380E28083B287A1878CE293
:101BE0008283148213821582168217821086A3E0E4
:101BF000B5E09BE094969C9394978DE095968C939A
:101C0000959796962C93969797961C92ABEDB4E089
:101C100094969C93949795968C93959781E196963C
:101C20008C93969797961C92AFECB4E01196FC9328
:101C3000EE9384E190E013969C938E931297159601
:101C40001C921E92149716961D921D921D921C9224
:101C500019978FEF1A968C931A971B961C92EFEB9D
:101C6000F4E089EB92E09183808382E093E09383B8
:101C7000828384E593E0958384838DEA93E0978360
:101C8000868389EB94E09187808788E395E093874A
:101C9000828785EC95E09587848781E696E0978733
:101CA0008687E7E9F4E083E791E0918380838FE61C
:101CB00091E09383828342E050E05583448317860A
:101CC000168681E0808BEFE6F4E027E631E0318391
:101CD00020832FE531E03383228324E030E0358315
:101CE000248317861686808BE7E4F4E06BE571E0C9
:101CF0007183608367E571E07383628355834483F6
:101D000017861686808BEFE1F4E063E571E071835E
:101D100060836FE471E07383628355834483178625
:101D20001686808BE7EFF3E06BE471E071836083EC
:101D300067E471E073836283558344831786168654
:101D4000808BEFECF3E04FE351E05183408347E3B6
:101D500051E0538342833583248317861686808B14
:101D6000E7EAF3E08FE291E09183808387E291E0FC
:101D7000938382833583248317861686108AEFE740
:101D8000F3E085E291E09183808383E291E09383A5
:101D9000828381E090E09583848317861686108A7B
:101DA000E7E5F3E08BE191E09183808383E191E0CB
:101DB000938382833583248317861686108A089539
:101DC000789484B5826084BD84B5816084BD85B516
:101DD000826085BD85B5816085BD80916E00816022
:101DE00080936E00109281008091810082608093C8
:101DF00081008091810081608093810080918000CA
:101E00008160809380008091B10084608093B100F4
:101E10008091B00081608093B00080917A008460EE
:101E200080937A0080917A00826080937A0080911A
:101E30007A00816080937A0080917A008068809334
:101E40007A001092C100E1E480E170E060E09B0163
:101E5000220F331FE0937C0090917A00906490935E
:101E60007A0090917A0096FDFCCF409178005091D5
:101E70007900B90164277527815049F72417350780
:101E800019F3072E000C880B990B0E94D713E091D1
:101E9000CA02F091CB0282E08083E091C602F09109
:101EA000C7021082E091C802F091C90280E18083EC
:101EB0001092D202E091CE02F091CF0286E08083B0
:101EC000E091CC02F091CD02808180618083E0912D
:101ED000CC02F091CD02808188608083E091CC02B9
:101EE000F091CD02808180688083E091CC02F091F6
:101EF000CD0280818F7D8083109246021092450230
:101F0000109297021092B9020E94190487E691E09C
:101F1000909344028093430288E691E090934202BA
:101F2000809341028CE08093B80060EF87E395E0F6
:101F30000E94AC088091370591E0909396028093BF
:101F4000B802109297021092B90281E00E945804E0
:101F5000882309F46EC046E150E06CEA71E08AEB38
:101F600092E00E94690142E050E063EC71E08AEB8C
:101F700092E00E94690183E095E00E94FB078BEDEF
:101F800094E00E94FB0720E030E543E457E470E072
:101F900060E083E095E00E94200383E095E00E94EA
:101FA000120320E030E543E457E470E060E08BED9D
:101FB00094E00E9420038BED94E00E9412038FE0D6
:101FC0000E948D0061E08FE00E94D50084EFC82E52
:101FD000DD24D394E12CF12C98EE892E93E0992EF8
:101FE000A12CB12C2CE0222E312C38E1432E512C87
:101FF000C1E0D0E002E010E080915F0290916002C9
:102000008430910509F47EC10CF05EC081309105E9
:1020100009F4E5C0ACF4892B09F4B7C080E090E086
:10202000892B51F30E94D301882321F30E940000E1
:10203000E1CF80E091E090934305809342059BCFF0
:102040008230910509F4F0C0039741F722EF37E0A1
:1020500045EA57E070E060E08BEC91E00E94520BA3
:10206000682E8823D9F267ED71E00E949A078111EA
:10207000F9C069EA71E0862D0E949A07811102C1B8
:10208000E0915E02E03184F481E08E0F80935E0285
:102090000E2E000CFF0BE55BFD4F6082E82F880FD2
:1020A000FF0BE55BFD4F108280915E02082E000C55
:1020B000990B20915C0230915D02821793070CF41A
:1020C000ADCF84E090E083C08431910509F44CC029
:1020D0000CF044C0059709F0A1CF60EF8091CF04C8
:1020E0009091D0040E94AC088F3FA1F0803F91F006
:1020F0000E943F0662EF77E085EA97E00E94AA0916
:10210000892BC1F70E948A060E947B071092600209
:1021100010925F028091490290914A0220914702F9
:10212000309148022330310509F085C28130910594
:1021300009F47BC20CF06AC2892B09F470C27110D9
:102140006DCF0E943F0664EF71E080E090E00E9456
:1021500028010E947C060E948A0688C08E31910563
:1021600019F0889709F05ACF68EC70E080E090E0B1
:102170000E9428012FEF3FEF48EC50E070E060E054
:1021800088E29AE00E949E0371C030E020E050E0B7
:1021900040E063E070E086EC91E00E94520B8823FF
:1021A00009F43CCF823489F044F4813409F036CF0D
:1021B000D0936002C0935F0231CF833469F08434DE
:1021C00009F02CCF88E290E002C084E190E0909387
:1021D000600280935F0222CF8EE190E0F8CF60E052
:1021E0008FE00E94D50020E030E04FEA53E470E039
:1021F00060E083E095E00E94200320E030E04CEDB9
:1022000053E470E060E08BED94E00E9420031093B3
:10221000600200935F0262EF77E085EA97E00E9438
:10222000AA09892BC1F7FACE10925E0210925D02C4
:1022300010925C02109248021092470222EF37E09F
:1022400045EA57E070E060E08BEC91E00E94520BB1
:10225000682E882309F4E2CE67ED71E00E949A07A8
:10226000882349F00E948A060E947B071092600230
:1022700010925F02D3CE69EA71E0862D0E949A0720
:10228000882349F00E94560768EC70E080E090E0F7
:102290000E942801E7CFE0915E02E03184F481E002
:1022A0008E0F80935E020E2E000CFF0BE55BFD4F40
:1022B0006082E82F880FFF0BE55BFD4F108280E303
:1022C000681681F091E3691216C0109348020093DA
:1022D00047028BE090E090935D0280935C0283E084
:1022E00090E075CF83E090E090934802809347029E
:1022F0008DE090E0F0CFD0934802C093470287E092
:1023000090E0E9CFE0915E020E2E000CFF0BE65B41
:10231000FD4F8081823309F44EC0833309F452C0EB
:10232000813309F056C0D0934A02C093490281E03C
:1023300090E020914702309148022330310509F0A6
:10234000FAC08130910509F4C8C00CF08DC0892B0A
:1023500009F4AAC00E948813A70196010E94E01305
:102360006C507E4F8F4F9F4F0E9428010E94530652
:1023700030E020E043E050E068E572E088E592E07C
:102380000E949E030E9453060E948813A701960193
:102390000E94E0136C507E4F8F4F9F4F0E94280188
:1023A0000E947C066CE271E080E090E00E942801CF
:1023B00085E090E00CCF10934A020093490282E03E
:1023C00090E0B7CF83E090E090934A028093490277
:1023D000B0CF0E948813A50194010E94E013809160
:1023E00047029091480283309105F1F4643492E001
:1023F00079074CF410924A021092490280914902E6
:1024000090914A0296CF6E3383E078072CF4D093F4
:102410004A02C0934902F2CF663B734094F4109392
:102420004A0200934902EACF029791F4683A82E0A7
:10243000780704F36E3893E079074CF36A3C7340F5
:1024400074F383E090E090934A0280934902D6CFE0
:102450006A3D92E0790774F2643D83E07807BCF24C
:10246000693D7340E4F2EDCF8230910509F44CC030
:10247000039709F06FCF8AE090E0909386038093F2
:10248000850310928703109288031092890310929B
:102490008A0310928C0310928B0310929003109277
:1024A000A5031092A60356CF88E090E0909376049F
:1024B0008093750410927704109278041092790436
:1024C00010927A0410927C0410927B041092800483
:1024D00010929504109296043DCF309226042092DB
:1024E00025041092270410922804109229041092B7
:1024F0002A0410922C0410922B0410923004109293
:1025000045041092460426CF5092D6034092D5033C
:102510001092D7031092D8031092D9031092DA03C5
:102520001092DC031092DB031092E0031092F5038B
:102530001092F6030FCF81309105D1F1E4F4892B8D
:1025400009F008CF86E090E090939E0480939D046C
:1025500010929F041092A0041092A1041092A20461
:102560001092A4041092A3041092A8041092BD0427
:102570001092BE04EFCE8230910589F1039709F0E5
:10258000E9CED093AE03C093AD031092AF03109287
:10259000B0031092B1031092B2031092B4031092E0
:1025A000B3031092B8031092CD031092CE03D2CE93
:1025B00030924E0420924D0410924F041092500419
:1025C0001092510410925204109254041092530429
:1025D0001092580410926D0410926E04BBCE50926B
:1025E000FE034092FD031092FF031092000410922C
:1025F0000104109202041092040410920304109239
:10260000080410921D0410921E04A4CE823091057D
:1026100079F0039709F093CD8FE793E002C08FE63E
:1026200094E00E948E06782E8ACD8FE194E0F9CF57
:102630008FEC93E0F6CF8130910581F034F4892B53
:1026400009F07DCD87E994E0ECCF8230910549F027
:10265000039709F074CD87EA93E0E3CF87E494E031
:10266000E0CF87EF93E0DDCF8BED94E00E94760220
:1026700083E095E00C9476028F929F92AF92BF9286
:10268000CF92DF92EF92FF92CF93DF93EC016881BC
:1026900079818A819B81611571058105910521F4FC
:1026A00064E279ED8BE597E02DE133EF41E050E016
:1026B0000E94E01349015A019B01AC01A7EAB1E471
:1026C0000E94FF136B017C01ACEEB4EFA5019401F5
:1026D0000E940D14C60ED71EE81EF91EF7FE06C096
:1026E00081E0C81AD108E10880E8F80AC882D982D6
:1026F000EA82FB82C701B6019F77DF91CF91FF90FD
:10270000EF90DF90CF90BF90AF909F908F90089503
:102710008F929F92AF92BF92CF92DF92EF92FF92F1
:1027200060917701709178018091790190917A019F
:10273000611571058105910521F464E279ED8BE560
:1027400097E02DE133EF41E050E00E94E0134901B2
:102750005A019B01AC01A7EAB1E40E94FF136B018F
:102760007C01ACEEB4EFA50194010E940D14C60EDD
:10277000D71EE81EF91EF7FE06C081E0C81AD10870
:10278000E10880E8F80AC0927701D0927801E092DF
:102790007901F0927A01C701B6019F77FF90EF901F
:1027A000DF90CF90BF90AF909F908F9008956093EF
:1027B0007701709378018093790190937A0108955D
:1027C000052E97FB1EF400940E94F71357FD07D0C7
:1027D0000E94121407FC03D04EF40C94F71350958A
:1027E0004095309521953F4F4F4F5F4F08959095FD
:1027F0008095709561957F4F8F4F9F4F08950E94F0
:102800003414A59F900DB49F900DA49F800D911D31
:1028100011240895B7FF0C94FF130E94FF13821B2D
:10282000930B0895A1E21A2EAA1BBB1BFD010DC03C
:10283000AA1FBB1FEE1FFF1FA217B307E407F50770
:1028400020F0A21BB30BE40BF50B661F771F881F4C
:10285000991F1A9469F760957095809590959B01E2
:10286000AC01BD01CF010895A29FB001B39FC0018B
:10287000A39F700D811D1124911DB29F700D811DAC
:102880001124911D089597FB072E16F4009407D08C
:1028900077FD09D00E945D1407FC05D03EF49095A9
:1028A00081959F4F0895709561957F4F0895EE0F24
:1028B000FF1F0590F491E02D0994AA1BBB1B51E169
:1028C00007C0AA1FBB1FA617B70710F0A61BB70BA0
:1028D000881F991F5A95A9F780959095BC01CD0145
:1028E00008955058BB27AA270E9489140C94D31529
:1028F0000E94C51538F00E94CC1520F039F49F3F96
:1029000019F426F40C94C2150EF4E095E7FB0C9430
:10291000BC15E92F0E94E41558F3BA176207730734
:102920008407950720F079F4A6F50C9406160EF4AA
:10293000E0950B2EBA2FA02D0B01B90190010C01CF
:10294000CA01A0011124FF27591B99F0593F50F4E7
:10295000503E68F11A16F040A22F232F342F44273F
:10296000585FF3CF469537952795A795F040539537
:10297000C9F77EF41F16BA0B620B730B840BBAF007
:102980009150A1F0FF0FBB1F661F771F881FC2F772
:102990000EC0BA0F621F731F841F48F48795779586
:1029A0006795B795F7959E3F08F0B0CF9395880F40
:1029B00008F09927EE0F9795879508950E94F214D5
:1029C0000C94D3150E94CC1558F00E94C51540F008
:1029D00029F45F3F29F00C94BC1551110C94071693
:1029E0000C94C2150E94E41568F39923B1F35523A2
:1029F00091F3951B550BBB27AA2762177307840712
:102A000038F09F5F5F4F220F331F441FAA1FA9F3A7
:102A100035D00E2E3AF0E0E832D091505040E69595
:102A2000001CCAF72BD0FE2F29D0660F771F881FF6
:102A3000BB1F261737074807AB07B0E809F0BB0BE9
:102A4000802DBF01FF2793585F4F3AF09E3F5105FD
:102A500078F00C94BC150C9407165F3FE4F3983E95
:102A6000D4F3869577956795B795F7959F5FC9F7E6
:102A7000880F911D9695879597F90895E1E0660F67
:102A8000771F881FBB1F621773078407BA0720F0E0
:102A9000621B730B840BBA0BEE1F88F7E095089549
:102AA0000E94EC1588F09F5798F0B92F9927B751DD
:102AB000B0F0E1F0660F771F881F991F1AF0BA95E2
:102AC000C9F714C0B13091F00E940616B1E0089524
:102AD0000C940616672F782F8827B85F39F0B93F16
:102AE000CCF3869577956795B395D9F73EF4909595
:102AF0008095709561957F4F8F4F9F4F0895E89413
:102B000009C097FB3EF490958095709561957F4F35
:102B10008F4F9F4F9923A9F0F92F96E9BB279395E3
:102B2000F695879577956795B795F111F8CFFAF4F3
:102B3000BB0F11F460FF1BC06F5F7F4F8F4F9F4F24
:102B400016C0882311F096E911C0772321F09EE882
:102B5000872F762F05C0662371F096E8862F70E0E8
:102B600060E02AF09A95660F771F881FDAF7880FC2
:102B70009695879597F9089597F99F6780E870E093
:102B800060E008959FEF80EC089500240A941616E3
:102B9000170618060906089500240A94121613064B
:102BA000140605060895092E0394000C11F48823D9
:102BB00052F0BB0F40F4BF2B11F460FF04C06F5FF5
:102BC0007F4F8F4F9F4F089557FD9058440F551FCB
:102BD00059F05F3F71F04795880F97FB991F61F09F
:102BE0009F3F79F087950895121613061406551F16
:102BF000F2CF4695F1DF08C0161617061806991F82
:102C0000F1CF86957105610508940895E894BB2776
:102C100066277727CB0197F908950E9420160C9418
:102C2000D3150E94C51538F00E94CC1520F09523CD
:102C300011F00C94BC150C94C21511240C940716B9
:102C40000E94E41570F3959FC1F3950F50E0551F56
:102C5000629FF001729FBB27F00DB11D639FAA27F1
:102C6000F00DB11DAA1F649F6627B00DA11D661F40
:102C7000829F2227B00DA11D621F739FB00DA11D61
:102C8000621F839FA00D611D221F749F3327A00D1B
:102C9000611D231F849F600D211D822F762F6A2FB7
:102CA00011249F5750409AF0F1F088234AF0EE0F1C
:102CB000FF1FBB1F661F771F881F91505040A9F749
:102CC0009E3F510580F00C94BC150C9407165F3F95
:102CD000E4F3983ED4F3869577956795B795F79585
:102CE000E7959F5FC1F7FE2B880F911D96958795FD
:102CF00097F9089510E0C2E6D0E004C0FE010E94FA
:0E2D000057142196C336D107C9F7F894FFCFB8
:102D0E004423302A43393837423635344133323151
:102D1E00494E463200320032003200D1053F06D114
:102D2E00053F06E80321067C0114017C010000EF3B
:102D3E0005E505DB053F0690015E01E1000D022170
:102D4E00063F0621063F06FA00FA002B063F0677DD
:102D5E0001770121063F06F401F4012B063F069090
:102D6E0001C8009001D007F9053F06F9053F06D0CE
:102D7E0007A00F0D063F060100000000000000092D
:102D8E0002690196015602C701A501B901000000B2
:102D9E00009F057205CE0548056B0558054905309F
:102DAE003132333435363738392A23004661696C6F
:102DBE00656420746F20626567696E206B6579703B
:102DCE006164000D0A004142434400303132333415
:0A2DDE0035363738392A234100004A
:00000001FF
